{
  "_format": "hh-sol-artifact-1",
  "contractName": "PopeToken",
  "sourceName": "contracts/PopeToken.sol",
  "abi": [
    {
      "inputs": [
        {
          "internalType": "uint256",
          "name": "_initialSupply",
          "type": "uint256"
        }
      ],
      "stateMutability": "nonpayable",
      "type": "constructor"
    },
    {
      "anonymous": false,
      "inputs": [
        {
          "indexed": true,
          "internalType": "address",
          "name": "_owner",
          "type": "address"
        },
        {
          "indexed": true,
          "internalType": "address",
          "name": "_spender",
          "type": "address"
        },
        {
          "indexed": false,
          "internalType": "uint256",
          "name": "_value",
          "type": "uint256"
        }
      ],
      "name": "Approval",
      "type": "event"
    },
    {
      "anonymous": false,
      "inputs": [
        {
          "indexed": true,
          "internalType": "uint256",
          "name": "_balance",
          "type": "uint256"
        }
      ],
      "name": "Balance",
      "type": "event"
    },
    {
      "anonymous": false,
      "inputs": [
        {
          "indexed": false,
          "internalType": "address",
          "name": "_from",
          "type": "address"
        },
        {
          "indexed": false,
          "internalType": "uint256",
          "name": "_amount",
          "type": "uint256"
        }
      ],
      "name": "Burn",
      "type": "event"
    },
    {
      "anonymous": false,
      "inputs": [
        {
          "indexed": true,
          "internalType": "address",
          "name": "_from",
          "type": "address"
        },
        {
          "indexed": true,
          "internalType": "address",
          "name": "_to",
          "type": "address"
        },
        {
          "indexed": false,
          "internalType": "uint256",
          "name": "_value",
          "type": "uint256"
        }
      ],
      "name": "Transfer",
      "type": "event"
    },
    {
      "inputs": [
        {
          "internalType": "address",
          "name": "",
          "type": "address"
        },
        {
          "internalType": "address",
          "name": "",
          "type": "address"
        }
      ],
      "name": "allowance",
      "outputs": [
        {
          "internalType": "uint256",
          "name": "",
          "type": "uint256"
        }
      ],
      "stateMutability": "view",
      "type": "function"
    },
    {
      "inputs": [
        {
          "internalType": "address",
          "name": "_spender",
          "type": "address"
        },
        {
          "internalType": "uint256",
          "name": "_value",
          "type": "uint256"
        }
      ],
      "name": "approve",
      "outputs": [
        {
          "internalType": "bool",
          "name": "success",
          "type": "bool"
        }
      ],
      "stateMutability": "nonpayable",
      "type": "function"
    },
    {
      "inputs": [
        {
          "internalType": "address",
          "name": "_owner",
          "type": "address"
        }
      ],
      "name": "balanceOf",
      "outputs": [
        {
          "internalType": "uint256",
          "name": "balance",
          "type": "uint256"
        }
      ],
      "stateMutability": "view",
      "type": "function"
    },
    {
      "inputs": [
        {
          "internalType": "uint256",
          "name": "_amount",
          "type": "uint256"
        }
      ],
      "name": "burn",
      "outputs": [],
      "stateMutability": "nonpayable",
      "type": "function"
    },
    {
      "inputs": [],
      "name": "decimals",
      "outputs": [
        {
          "internalType": "uint256",
          "name": "",
          "type": "uint256"
        }
      ],
      "stateMutability": "view",
      "type": "function"
    },
    {
      "inputs": [],
      "name": "name",
      "outputs": [
        {
          "internalType": "string",
          "name": "",
          "type": "string"
        }
      ],
      "stateMutability": "view",
      "type": "function"
    },
    {
      "inputs": [],
      "name": "symbol",
      "outputs": [
        {
          "internalType": "string",
          "name": "",
          "type": "string"
        }
      ],
      "stateMutability": "view",
      "type": "function"
    },
    {
      "inputs": [],
      "name": "totalSupply",
      "outputs": [
        {
          "internalType": "uint256",
          "name": "",
          "type": "uint256"
        }
      ],
      "stateMutability": "view",
      "type": "function"
    },
    {
      "inputs": [
        {
          "internalType": "address",
          "name": "_to",
          "type": "address"
        },
        {
          "internalType": "uint256",
          "name": "_value",
          "type": "uint256"
        }
      ],
      "name": "transfer",
      "outputs": [
        {
          "internalType": "bool",
          "name": "success",
          "type": "bool"
        }
      ],
      "stateMutability": "nonpayable",
      "type": "function"
    },
    {
      "inputs": [
        {
          "internalType": "address",
          "name": "_from",
          "type": "address"
        },
        {
          "internalType": "address",
          "name": "_to",
          "type": "address"
        },
        {
          "internalType": "uint256",
          "name": "_value",
          "type": "uint256"
        }
      ],
      "name": "transferFrom",
      "outputs": [
        {
          "internalType": "bool",
          "name": "success",
          "type": "bool"
        }
      ],
      "stateMutability": "nonpayable",
      "type": "function"
    }
  ],
  "bytecode": "0x60806040523480156200001157600080fd5b5060405162001fd338038062001fd38339818101604052810190620000379190620001fc565b6040518060400160405280600a81526020017f506f706520546f6b656e00000000000000000000000000000000000000000000815250600090816200007d91906200049e565b506040518060400160405280600381526020017f50544b000000000000000000000000000000000000000000000000000000000081525060019081620000c491906200049e565b506012600281905550600254600a620000de919062000708565b81620000eb919062000759565b600381905550600354600460003373ffffffffffffffffffffffffffffffffffffffff1673ffffffffffffffffffffffffffffffffffffffff1681526020019081526020016000206000828254620001449190620007a4565b925050819055503373ffffffffffffffffffffffffffffffffffffffff16600073ffffffffffffffffffffffffffffffffffffffff167fddf252ad1be2c89b69c2b068fc378daa952ba7f163c4a11628f55a4df523b3ef600354604051620001ad9190620007f0565b60405180910390a3506200080d565b600080fd5b6000819050919050565b620001d681620001c1565b8114620001e257600080fd5b50565b600081519050620001f681620001cb565b92915050565b600060208284031215620002155762000214620001bc565b5b60006200022584828501620001e5565b91505092915050565b600081519050919050565b7f4e487b7100000000000000000000000000000000000000000000000000000000600052604160045260246000fd5b7f4e487b7100000000000000000000000000000000000000000000000000000000600052602260045260246000fd5b60006002820490506001821680620002b057607f821691505b602082108103620002c657620002c562000268565b5b50919050565b60008190508160005260206000209050919050565b60006020601f8301049050919050565b600082821b905092915050565b600060088302620003307fffffffffffffffffffffffffffffffffffffffffffffffffffffffffffffffff82620002f1565b6200033c8683620002f1565b95508019841693508086168417925050509392505050565b6000819050919050565b60006200037f620003796200037384620001c1565b62000354565b620001c1565b9050919050565b6000819050919050565b6200039b836200035e565b620003b3620003aa8262000386565b848454620002fe565b825550505050565b600090565b620003ca620003bb565b620003d781848462000390565b505050565b5b81811015620003ff57620003f3600082620003c0565b600181019050620003dd565b5050565b601f8211156200044e576200041881620002cc565b6200042384620002e1565b8101602085101562000433578190505b6200044b6200044285620002e1565b830182620003dc565b50505b505050565b600082821c905092915050565b6000620004736000198460080262000453565b1980831691505092915050565b60006200048e838362000460565b9150826002028217905092915050565b620004a9826200022e565b67ffffffffffffffff811115620004c557620004c462000239565b5b620004d1825462000297565b620004de82828562000403565b600060209050601f83116001811462000516576000841562000501578287015190505b6200050d858262000480565b8655506200057d565b601f1984166200052686620002cc565b60005b82811015620005505784890151825560018201915060208501945060208101905062000529565b868310156200057057848901516200056c601f89168262000460565b8355505b6001600288020188555050505b505050505050565b7f4e487b7100000000000000000000000000000000000000000000000000000000600052601160045260246000fd5b60008160011c9050919050565b6000808291508390505b60018511156200061357808604811115620005eb57620005ea62000585565b5b6001851615620005fb5780820291505b80810290506200060b85620005b4565b9450620005cb565b94509492505050565b6000826200062e576001905062000701565b816200063e576000905062000701565b8160018114620006575760028114620006625762000698565b600191505062000701565b60ff84111562000677576200067662000585565b5b8360020a91508482111562000691576200069062000585565b5b5062000701565b5060208310610133831016604e8410600b8410161715620006d25782820a905083811115620006cc57620006cb62000585565b5b62000701565b620006e18484846001620005c1565b92509050818404811115620006fb57620006fa62000585565b5b81810290505b9392505050565b60006200071582620001c1565b91506200072283620001c1565b9250620007517fffffffffffffffffffffffffffffffffffffffffffffffffffffffffffffffff84846200061c565b905092915050565b60006200076682620001c1565b91506200077383620001c1565b92508282026200078381620001c1565b915082820484148315176200079d576200079c62000585565b5b5092915050565b6000620007b182620001c1565b9150620007be83620001c1565b9250828201905080821115620007d957620007d862000585565b5b92915050565b620007ea81620001c1565b82525050565b6000602082019050620008076000830184620007df565b92915050565b6117b6806200081d6000396000f3fe608060405234801561001057600080fd5b506004361061009e5760003560e01c806342966c681161006657806342966c681461015d57806370a082311461017957806395d89b41146101a9578063a9059cbb146101c7578063dd62ed3e146101f75761009e565b806306fdde03146100a3578063095ea7b3146100c157806318160ddd146100f157806323b872dd1461010f578063313ce5671461013f575b600080fd5b6100ab610227565b6040516100b89190610fb7565b60405180910390f35b6100db60048036038101906100d69190611072565b6102b5565b6040516100e891906110cd565b60405180910390f35b6100f96104da565b60405161010691906110f7565b60405180910390f35b61012960048036038101906101249190611112565b6104e0565b60405161013691906110cd565b60405180910390f35b6101476109a9565b60405161015491906110f7565b60405180910390f35b61017760048036038101906101729190611165565b6109af565b005b610193600480360381019061018e9190611192565b610adc565b6040516101a091906110f7565b60405180910390f35b6101b1610b93565b6040516101be9190610fb7565b60405180910390f35b6101e160048036038101906101dc9190611072565b610c21565b6040516101ee91906110cd565b60405180910390f35b610211600480360381019061020c91906111bf565b610f02565b60405161021e91906110f7565b60405180910390f35b600080546102349061122e565b80601f01602080910402602001604051908101604052809291908181526020018280546102609061122e565b80156102ad5780601f10610282576101008083540402835291602001916102ad565b820191906000526020600020905b81548152906001019060200180831161029057829003601f168201915b505050505081565b60008073ffffffffffffffffffffffffffffffffffffffff168373ffffffffffffffffffffffffffffffffffffffff1603610325576040517f08c379a000000000000000000000000000000000000000000000000000000000815260040161031c906112ab565b60405180910390fd5b81600460003373ffffffffffffffffffffffffffffffffffffffff1673ffffffffffffffffffffffffffffffffffffffff1681526020019081526020016000205410156103a7576040517f08c379a000000000000000000000000000000000000000000000000000000000815260040161039e90611317565b60405180910390fd5b600082116103ea576040517f08c379a00000000000000000000000000000000000000000000000000000000081526004016103e1906113a9565b60405180910390fd5b81600560003373ffffffffffffffffffffffffffffffffffffffff1673ffffffffffffffffffffffffffffffffffffffff16815260200190815260200160002060008573ffffffffffffffffffffffffffffffffffffffff1673ffffffffffffffffffffffffffffffffffffffff168152602001908152602001600020819055508273ffffffffffffffffffffffffffffffffffffffff163373ffffffffffffffffffffffffffffffffffffffff167f8c5be1e5ebec7d5bd14f71427d1e84f3dd0314c0f7b2291e5b200ac8c7c3b925846040516104c891906110f7565b60405180910390a36001905092915050565b60035481565b60008073ffffffffffffffffffffffffffffffffffffffff168373ffffffffffffffffffffffffffffffffffffffff1603610550576040517f08c379a000000000000000000000000000000000000000000000000000000000815260040161054790611415565b60405180910390fd5b600073ffffffffffffffffffffffffffffffffffffffff168473ffffffffffffffffffffffffffffffffffffffff16036105bf576040517f08c379a00000000000000000000000000000000000000000000000000000000081526004016105b690611481565b60405180910390fd5b60008211610602576040517f08c379a00000000000000000000000000000000000000000000000000000000081526004016105f9906114ed565b60405180910390fd5b81600560008673ffffffffffffffffffffffffffffffffffffffff1673ffffffffffffffffffffffffffffffffffffffff16815260200190815260200160002060003373ffffffffffffffffffffffffffffffffffffffff1673ffffffffffffffffffffffffffffffffffffffff168152602001908152602001600020541015806106cc575081600460008673ffffffffffffffffffffffffffffffffffffffff1673ffffffffffffffffffffffffffffffffffffffff1681526020019081526020016000205410155b61070b576040517f08c379a000000000000000000000000000000000000000000000000000000000815260040161070290611559565b60405180910390fd5b81600560008673ffffffffffffffffffffffffffffffffffffffff1673ffffffffffffffffffffffffffffffffffffffff16815260200190815260200160002060003373ffffffffffffffffffffffffffffffffffffffff1673ffffffffffffffffffffffffffffffffffffffff168152602001908152602001600020600082825461079791906115a8565b9250508190555081600460008673ffffffffffffffffffffffffffffffffffffffff1673ffffffffffffffffffffffffffffffffffffffff16815260200190815260200160002060008282546107ed91906115a8565b925050819055506000600a83610803919061160b565b90506003547fe8d947d7ebdd7b8b8fa2ad2022c7591418ac32d8c29c5f8a8fc9de52ffa5409260405160405180910390a2806003600082825461084691906115a8565b92505081905550600073ffffffffffffffffffffffffffffffffffffffff163373ffffffffffffffffffffffffffffffffffffffff167fddf252ad1be2c89b69c2b068fc378daa952ba7f163c4a11628f55a4df523b3ef836040516108ab91906110f7565b60405180910390a36003547fe8d947d7ebdd7b8b8fa2ad2022c7591418ac32d8c29c5f8a8fc9de52ffa5409260405160405180910390a282600460008673ffffffffffffffffffffffffffffffffffffffff1673ffffffffffffffffffffffffffffffffffffffff1681526020019081526020016000206000828254610931919061163c565b925050819055508373ffffffffffffffffffffffffffffffffffffffff163373ffffffffffffffffffffffffffffffffffffffff167fddf252ad1be2c89b69c2b068fc378daa952ba7f163c4a11628f55a4df523b3ef8560405161099591906110f7565b60405180910390a360019150509392505050565b60025481565b80600460003373ffffffffffffffffffffffffffffffffffffffff1673ffffffffffffffffffffffffffffffffffffffff168152602001908152602001600020541015610a31576040517f08c379a0000000000000000000000000000000000000000000000000000000008152600401610a28906116bc565b60405180910390fd5b80600460003373ffffffffffffffffffffffffffffffffffffffff1673ffffffffffffffffffffffffffffffffffffffff1681526020019081526020016000206000828254610a8091906115a8565b925050819055508060036000828254610a9991906115a8565b925050819055507fcc16f5dbb4873280815c1ee09dbd06736cffcc184412cf7a71a0fdb75d397ca53382604051610ad19291906116eb565b60405180910390a150565b60008073ffffffffffffffffffffffffffffffffffffffff168273ffffffffffffffffffffffffffffffffffffffff1603610b4c576040517f08c379a0000000000000000000000000000000000000000000000000000000008152600401610b4390611760565b60405180910390fd5b600460008373ffffffffffffffffffffffffffffffffffffffff1673ffffffffffffffffffffffffffffffffffffffff168152602001908152602001600020549050919050565b60018054610ba09061122e565b80601f0160208091040260200160405190810160405280929190818152602001828054610bcc9061122e565b8015610c195780601f10610bee57610100808354040283529160200191610c19565b820191906000526020600020905b815481529060010190602001808311610bfc57829003601f168201915b505050505081565b60008073ffffffffffffffffffffffffffffffffffffffff168373ffffffffffffffffffffffffffffffffffffffff1603610c91576040517f08c379a0000000000000000000000000000000000000000000000000000000008152600401610c8890611415565b60405180910390fd5b60008211610cd4576040517f08c379a0000000000000000000000000000000000000000000000000000000008152600401610ccb906114ed565b60405180910390fd5b81600460003373ffffffffffffffffffffffffffffffffffffffff1673ffffffffffffffffffffffffffffffffffffffff168152602001908152602001600020541015610d56576040517f08c379a0000000000000000000000000000000000000000000000000000000008152600401610d4d90611559565b60405180910390fd5b81600460003373ffffffffffffffffffffffffffffffffffffffff1673ffffffffffffffffffffffffffffffffffffffff1681526020019081526020016000206000828254610da591906115a8565b925050819055506000600a83610dbb919061160b565b90508060036000828254610dcf91906115a8565b92505081905550600073ffffffffffffffffffffffffffffffffffffffff163373ffffffffffffffffffffffffffffffffffffffff167fddf252ad1be2c89b69c2b068fc378daa952ba7f163c4a11628f55a4df523b3ef85604051610e3491906110f7565b60405180910390a382600460008673ffffffffffffffffffffffffffffffffffffffff1673ffffffffffffffffffffffffffffffffffffffff1681526020019081526020016000206000828254610e8b919061163c565b925050819055508373ffffffffffffffffffffffffffffffffffffffff163373ffffffffffffffffffffffffffffffffffffffff167fddf252ad1be2c89b69c2b068fc378daa952ba7f163c4a11628f55a4df523b3ef85604051610eef91906110f7565b60405180910390a3600191505092915050565b6005602052816000526040600020602052806000526040600020600091509150505481565b600081519050919050565b600082825260208201905092915050565b60005b83811015610f61578082015181840152602081019050610f46565b60008484015250505050565b6000601f19601f8301169050919050565b6000610f8982610f27565b610f938185610f32565b9350610fa3818560208601610f43565b610fac81610f6d565b840191505092915050565b60006020820190508181036000830152610fd18184610f7e565b905092915050565b600080fd5b600073ffffffffffffffffffffffffffffffffffffffff82169050919050565b600061100982610fde565b9050919050565b61101981610ffe565b811461102457600080fd5b50565b60008135905061103681611010565b92915050565b6000819050919050565b61104f8161103c565b811461105a57600080fd5b50565b60008135905061106c81611046565b92915050565b6000806040838503121561108957611088610fd9565b5b600061109785828601611027565b92505060206110a88582860161105d565b9150509250929050565b60008115159050919050565b6110c7816110b2565b82525050565b60006020820190506110e260008301846110be565b92915050565b6110f18161103c565b82525050565b600060208201905061110c60008301846110e8565b92915050565b60008060006060848603121561112b5761112a610fd9565b5b600061113986828701611027565b935050602061114a86828701611027565b925050604061115b8682870161105d565b9150509250925092565b60006020828403121561117b5761117a610fd9565b5b60006111898482850161105d565b91505092915050565b6000602082840312156111a8576111a7610fd9565b5b60006111b684828501611027565b91505092915050565b600080604083850312156111d6576111d5610fd9565b5b60006111e485828601611027565b92505060206111f585828601611027565b9150509250929050565b7f4e487b7100000000000000000000000000000000000000000000000000000000600052602260045260246000fd5b6000600282049050600182168061124657607f821691505b602082108103611259576112586111ff565b5b50919050565b7f5a65726f20616464726573732073686f756c64206e6f74207370656e64000000600082015250565b6000611295601d83610f32565b91506112a08261125f565b602082019050919050565b600060208201905081810360008301526112c481611288565b9050919050565b7f496e73756666696369656e742046756e64730000000000000000000000000000600082015250565b6000611301601283610f32565b915061130c826112cb565b602082019050919050565b60006020820190508181036000830152611330816112f4565b9050919050565b7f506c65617365207061737320696e20612076616c75652067726561746572207460008201527f68616e2030000000000000000000000000000000000000000000000000000000602082015250565b6000611393602583610f32565b915061139e82611337565b604082019050919050565b600060208201905081810360008301526113c281611386565b9050919050565b7f596f752063616e27742073656e6420746f207a65726f20616464726573730000600082015250565b60006113ff601e83610f32565b915061140a826113c9565b602082019050919050565b6000602082019050818103600083015261142e816113f2565b9050919050565b7f596f752063616e27742073656e642066726f6d207a65726f2061646472657373600082015250565b600061146b602083610f32565b915061147682611435565b602082019050919050565b6000602082019050818103600083015261149a8161145e565b9050919050565b7f496e76616c696420616d6f756e7420746f2062652073656e7400000000000000600082015250565b60006114d7601983610f32565b91506114e2826114a1565b602082019050919050565b60006020820190508181036000830152611506816114ca565b9050919050565b7f496e73756666696369656e742042616c616e6365000000000000000000000000600082015250565b6000611543601483610f32565b915061154e8261150d565b602082019050919050565b6000602082019050818103600083015261157281611536565b9050919050565b7f4e487b7100000000000000000000000000000000000000000000000000000000600052601160045260246000fd5b60006115b38261103c565b91506115be8361103c565b92508282039050818111156115d6576115d5611579565b5b92915050565b7f4e487b7100000000000000000000000000000000000000000000000000000000600052601260045260246000fd5b60006116168261103c565b91506116218361103c565b925082611631576116306115dc565b5b828204905092915050565b60006116478261103c565b91506116528361103c565b925082820190508082111561166a57611669611579565b5b92915050565b7f496e73756666696369656e742062616c616e6365000000000000000000000000600082015250565b60006116a6601483610f32565b91506116b182611670565b602082019050919050565b600060208201905081810360008301526116d581611699565b9050919050565b6116e581610ffe565b82525050565b600060408201905061170060008301856116dc565b61170d60208301846110e8565b9392505050565b7f43616c6c6572204572726f720000000000000000000000000000000000000000600082015250565b600061174a600c83610f32565b915061175582611714565b602082019050919050565b600060208201905081810360008301526117798161173d565b905091905056fea2646970667358221220e3d6a41a6dde37ee71d4a677c33c0cdb3be5acb5bbea2cbf8452fccdbab21f7c64736f6c63430008140033",
  "linkReferences": {},
  "deployedLinkReferences": {}
}