{
  "_format": "hh-sol-artifact-1",
  "contractName": "PopeAuctionHouse",
  "sourceName": "contracts/PopeAuctionHouse.sol",
  "abi": [
    {
      "inputs": [
        {
          "internalType": "address",
          "name": "_popeTokenAddress",
          "type": "address"
        }
      ],
      "stateMutability": "nonpayable",
      "type": "constructor"
    },
    {
      "anonymous": false,
      "inputs": [
        {
          "indexed": true,
          "internalType": "uint256",
          "name": "tokenId",
          "type": "uint256"
        },
        {
          "indexed": false,
          "internalType": "bool",
          "name": "isERC1155",
          "type": "bool"
        },
        {
          "indexed": false,
          "internalType": "uint256",
          "name": "amount",
          "type": "uint256"
        }
      ],
      "name": "AuctionCreated",
      "type": "event"
    },
    {
      "anonymous": false,
      "inputs": [
        {
          "indexed": true,
          "internalType": "uint256",
          "name": "tokenId",
          "type": "uint256"
        },
        {
          "indexed": false,
          "internalType": "address",
          "name": "winner",
          "type": "address"
        },
        {
          "indexed": false,
          "internalType": "uint256",
          "name": "bid",
          "type": "uint256"
        }
      ],
      "name": "AuctionEnded",
      "type": "event"
    },
    {
      "anonymous": false,
      "inputs": [
        {
          "indexed": true,
          "internalType": "uint256",
          "name": "tokenId",
          "type": "uint256"
        },
        {
          "indexed": false,
          "internalType": "uint256",
          "name": "prevBidderProfit",
          "type": "uint256"
        },
        {
          "indexed": false,
          "internalType": "uint256",
          "name": "feesBurned",
          "type": "uint256"
        },
        {
          "indexed": false,
          "internalType": "uint256",
          "name": "feesToDAO",
          "type": "uint256"
        },
        {
          "indexed": false,
          "internalType": "uint256",
          "name": "feesToTeam",
          "type": "uint256"
        }
      ],
      "name": "FeesDistributed",
      "type": "event"
    },
    {
      "anonymous": false,
      "inputs": [
        {
          "indexed": true,
          "internalType": "uint256",
          "name": "tokenId",
          "type": "uint256"
        },
        {
          "indexed": false,
          "internalType": "address",
          "name": "bidder",
          "type": "address"
        },
        {
          "indexed": false,
          "internalType": "uint256",
          "name": "bid",
          "type": "uint256"
        }
      ],
      "name": "NewBid",
      "type": "event"
    },
    {
      "inputs": [],
      "name": "DAO_ADDRESS",
      "outputs": [
        {
          "internalType": "address",
          "name": "",
          "type": "address"
        }
      ],
      "stateMutability": "view",
      "type": "function"
    },
    {
      "inputs": [],
      "name": "FEE_DENOMINATOR",
      "outputs": [
        {
          "internalType": "uint256",
          "name": "",
          "type": "uint256"
        }
      ],
      "stateMutability": "view",
      "type": "function"
    },
    {
      "inputs": [
        {
          "internalType": "uint256",
          "name": "_tokenId",
          "type": "uint256"
        },
        {
          "internalType": "uint256",
          "name": "_bidAmount",
          "type": "uint256"
        }
      ],
      "name": "bid",
      "outputs": [],
      "stateMutability": "nonpayable",
      "type": "function"
    },
    {
      "inputs": [
        {
          "internalType": "uint256",
          "name": "_tokenId",
          "type": "uint256"
        },
        {
          "internalType": "bool",
          "name": "_isERC1155",
          "type": "bool"
        },
        {
          "internalType": "uint256",
          "name": "_amount",
          "type": "uint256"
        },
        {
          "internalType": "address",
          "name": "_nftContract",
          "type": "address"
        }
      ],
      "name": "createAuction",
      "outputs": [],
      "stateMutability": "nonpayable",
      "type": "function"
    },
    {
      "inputs": [
        {
          "internalType": "uint256",
          "name": "_tokenId",
          "type": "uint256"
        },
        {
          "internalType": "address",
          "name": "_nftContract",
          "type": "address"
        }
      ],
      "name": "endAuction",
      "outputs": [],
      "stateMutability": "nonpayable",
      "type": "function"
    }
  ],
  "bytecode": "0x60806040523480156200001157600080fd5b5060405162001adc38038062001adc833981810160405281019062000037919062000129565b806000806101000a81548173ffffffffffffffffffffffffffffffffffffffff021916908373ffffffffffffffffffffffffffffffffffffffff16021790555030600260006101000a81548173ffffffffffffffffffffffffffffffffffffffff021916908373ffffffffffffffffffffffffffffffffffffffff160217905550506200015b565b600080fd5b600073ffffffffffffffffffffffffffffffffffffffff82169050919050565b6000620000f182620000c4565b9050919050565b6200010381620000e4565b81146200010f57600080fd5b50565b6000815190506200012381620000f8565b92915050565b600060208284031215620001425762000141620000bf565b5b6000620001528482850162000112565b91505092915050565b611971806200016b6000396000f3fe608060405234801561001057600080fd5b50600436106100575760003560e01c8063598647f81461005c578063b63a815114610078578063cbf8455d14610094578063d73792a9146100b0578063f68ded66146100ce575b600080fd5b610076600480360381019061007191906111a8565b6100ec565b005b610092600480360381019061008d919061127e565b610427565b005b6100ae60048036038101906100a991906112e5565b610809565b005b6100b8610cc6565b6040516100c59190611334565b60405180910390f35b6100d6610ccb565b6040516100e3919061135e565b60405180910390f35b60006001600084815260200190815260200160002090508060050160009054906101000a900460ff1615610155576040517f08c379a000000000000000000000000000000000000000000000000000000000815260040161014c906113d6565b60405180910390fd5b8060030154821161019b576040517f08c379a000000000000000000000000000000000000000000000000000000000815260040161019290611442565b60405180910390fd5b600073ffffffffffffffffffffffffffffffffffffffff168160020160009054906101000a900473ffffffffffffffffffffffffffffffffffffffff1673ffffffffffffffffffffffffffffffffffffffff16036102ef5760008054906101000a900473ffffffffffffffffffffffffffffffffffffffff1673ffffffffffffffffffffffffffffffffffffffff166323b872dd3330856040518463ffffffff1660e01b815260040161025093929190611462565b6020604051808303816000875af115801561026f573d6000803e3d6000fd5b505050506040513d601f19601f8201168201806040525081019061029391906114ae565b50818160030181905550818160040181905550338160020160006101000a81548173ffffffffffffffffffffffffffffffffffffffff021916908373ffffffffffffffffffffffffffffffffffffffff16021790555050610423565b60008054906101000a900473ffffffffffffffffffffffffffffffffffffffff1673ffffffffffffffffffffffffffffffffffffffff166323b872dd3330856040518463ffffffff1660e01b815260040161034c93929190611462565b6020604051808303816000875af115801561036b573d6000803e3d6000fd5b505050506040513d601f19601f8201168201806040525081019061038f91906114ae565b5061039a8383610ce3565b50338160020160006101000a81548173ffffffffffffffffffffffffffffffffffffffff021916908373ffffffffffffffffffffffffffffffffffffffff160217905550818160040181905550827f558a0d5d5468d74b0db24c74eb348b42271c2ebb4c9e953ced38aaed95fa436133846040516104199291906114db565b60405180910390a2505b5050565b6001600085815260200190815260200160002060050160009054906101000a900460ff161561048b576040517f08c379a000000000000000000000000000000000000000000000000000000000815260040161048290611550565b60405180910390fd5b600073ffffffffffffffffffffffffffffffffffffffff168173ffffffffffffffffffffffffffffffffffffffff16036104fa576040517f08c379a00000000000000000000000000000000000000000000000000000000081526004016104f1906115bc565b60405180910390fd5b3373ffffffffffffffffffffffffffffffffffffffff168173ffffffffffffffffffffffffffffffffffffffff16636352211e866040518263ffffffff1660e01b815260040161054a9190611334565b602060405180830381865afa158015610567573d6000803e3d6000fd5b505050506040513d601f19601f8201168201806040525081019061058b91906115f1565b73ffffffffffffffffffffffffffffffffffffffff16146105e1576040517f08c379a00000000000000000000000000000000000000000000000000000000081526004016105d89061166a565b60405180910390fd5b8073ffffffffffffffffffffffffffffffffffffffff166323b872dd3330876040518463ffffffff1660e01b815260040161061e93929190611462565b600060405180830381600087803b15801561063857600080fd5b505af115801561064c573d6000803e3d6000fd5b505050506040518061010001604052803373ffffffffffffffffffffffffffffffffffffffff168152602001858152602001600073ffffffffffffffffffffffffffffffffffffffff168152602001838152602001600081526020016000151581526020018415158152602001838152506001600086815260200190815260200160002060008201518160000160006101000a81548173ffffffffffffffffffffffffffffffffffffffff021916908373ffffffffffffffffffffffffffffffffffffffff1602179055506020820151816001015560408201518160020160006101000a81548173ffffffffffffffffffffffffffffffffffffffff021916908373ffffffffffffffffffffffffffffffffffffffff160217905550606082015181600301556080820151816004015560a08201518160050160006101000a81548160ff02191690831515021790555060c08201518160050160016101000a81548160ff02191690831515021790555060e08201518160060155905050837f78207b09ef8ce7e7407636c4b248dc7118e62dec6739c5a1b2b6eb8533fc7e4a84846040516107fb929190611699565b60405180910390a250505050565b610812826110c6565b60006001600084815260200190815260200160002090508060050160009054906101000a900460ff161561087b576040517f08c379a0000000000000000000000000000000000000000000000000000000008152600401610872906113d6565b60405180910390fd5b60018160050160006101000a81548160ff021916908315150217905550600073ffffffffffffffffffffffffffffffffffffffff168160020160009054906101000a900473ffffffffffffffffffffffffffffffffffffffff1673ffffffffffffffffffffffffffffffffffffffff1614610b0d578060050160019054906101000a900460ff16156109a9578173ffffffffffffffffffffffffffffffffffffffff1663f242432a308360020160009054906101000a900473ffffffffffffffffffffffffffffffffffffffff16846001015485600601546040518563ffffffff1660e01b815260040161097294939291906116f9565b600060405180830381600087803b15801561098c57600080fd5b505af11580156109a0573d6000803e3d6000fd5b50505050610a41565b8173ffffffffffffffffffffffffffffffffffffffff166342842e0e308360020160009054906101000a900473ffffffffffffffffffffffffffffffffffffffff1684600101546040518463ffffffff1660e01b8152600401610a0e93929190611462565b600060405180830381600087803b158015610a2857600080fd5b505af1158015610a3c573d6000803e3d6000fd5b505050505b60008054906101000a900473ffffffffffffffffffffffffffffffffffffffff1673ffffffffffffffffffffffffffffffffffffffff1663a9059cbb8260000160009054906101000a900473ffffffffffffffffffffffffffffffffffffffff1683600301546040518363ffffffff1660e01b8152600401610ac49291906114db565b6020604051808303816000875af1158015610ae3573d6000803e3d6000fd5b505050506040513d601f19601f82011682018060405250810190610b0791906114ae565b50610c5f565b8060050160019054906101000a900460ff1615610bc6578173ffffffffffffffffffffffffffffffffffffffff1663f242432a308360000160009054906101000a900473ffffffffffffffffffffffffffffffffffffffff16846001015485600601546040518563ffffffff1660e01b8152600401610b8f94939291906116f9565b600060405180830381600087803b158015610ba957600080fd5b505af1158015610bbd573d6000803e3d6000fd5b50505050610c5e565b8173ffffffffffffffffffffffffffffffffffffffff166342842e0e308360000160009054906101000a900473ffffffffffffffffffffffffffffffffffffffff1684600101546040518463ffffffff1660e01b8152600401610c2b93929190611462565b600060405180830381600087803b158015610c4557600080fd5b505af1158015610c59573d6000803e3d6000fd5b505050505b5b827fd2aa34a4fdbbc6dff6a3e56f46e0f3ae2a31d7785ff3487aa5c95c642acea5018260020160009054906101000a900473ffffffffffffffffffffffffffffffffffffffff168360030154604051610cb99291906114db565b60405180910390a2505050565b606481565b73b7b943ffba78e33589971e630ad6eb544252d88c81565b60008060016000858152602001908152602001600020905060006064600a85610d0c9190611780565b610d1691906117f1565b90508084610d249190611822565b826003018190555060006064601e83610d3d9190611780565b610d4791906117f1565b905060006064601484610d5a9190611780565b610d6491906117f1565b905060006064601e85610d779190611780565b610d8191906117f1565b905060006064601486610d949190611780565b610d9e91906117f1565b90506000848760040154610db29190611856565b905060008054906101000a900473ffffffffffffffffffffffffffffffffffffffff1673ffffffffffffffffffffffffffffffffffffffff166323b872dd308960020160009054906101000a900473ffffffffffffffffffffffffffffffffffffffff16846040518463ffffffff1660e01b8152600401610e3593929190611462565b6020604051808303816000875af1158015610e54573d6000803e3d6000fd5b505050506040513d601f19601f82011682018060405250810190610e7891906114ae565b5060008054906101000a900473ffffffffffffffffffffffffffffffffffffffff1673ffffffffffffffffffffffffffffffffffffffff166342966c68856040518263ffffffff1660e01b8152600401610ed29190611334565b600060405180830381600087803b158015610eec57600080fd5b505af1158015610f00573d6000803e3d6000fd5b5050505060008054906101000a900473ffffffffffffffffffffffffffffffffffffffff1673ffffffffffffffffffffffffffffffffffffffff1663a9059cbb73b7b943ffba78e33589971e630ad6eb544252d88c856040518363ffffffff1660e01b8152600401610f739291906114db565b6020604051808303816000875af1158015610f92573d6000803e3d6000fd5b505050506040513d601f19601f82011682018060405250810190610fb691906114ae565b5060008054906101000a900473ffffffffffffffffffffffffffffffffffffffff1673ffffffffffffffffffffffffffffffffffffffff1663a9059cbb600260009054906101000a900473ffffffffffffffffffffffffffffffffffffffff16846040518363ffffffff1660e01b81526004016110349291906114db565b6020604051808303816000875af1158015611053573d6000803e3d6000fd5b505050506040513d601f19601f8201168201806040525081019061107791906114ae565b50897f5e6c0cbe2644fd646f1214bf0ff8bc707760f5625a4d69c66d1c98af4cde26e7868686866040516110ae949392919061188a565b60405180910390a28497505050505050505092915050565b3373ffffffffffffffffffffffffffffffffffffffff166001600083815260200190815260200160002060000160009054906101000a900473ffffffffffffffffffffffffffffffffffffffff1673ffffffffffffffffffffffffffffffffffffffff161461116a576040517f08c379a00000000000000000000000000000000000000000000000000000000081526004016111619061191b565b60405180910390fd5b50565b600080fd5b6000819050919050565b61118581611172565b811461119057600080fd5b50565b6000813590506111a28161117c565b92915050565b600080604083850312156111bf576111be61116d565b5b60006111cd85828601611193565b92505060206111de85828601611193565b9150509250929050565b60008115159050919050565b6111fd816111e8565b811461120857600080fd5b50565b60008135905061121a816111f4565b92915050565b600073ffffffffffffffffffffffffffffffffffffffff82169050919050565b600061124b82611220565b9050919050565b61125b81611240565b811461126657600080fd5b50565b60008135905061127881611252565b92915050565b600080600080608085870312156112985761129761116d565b5b60006112a687828801611193565b94505060206112b78782880161120b565b93505060406112c887828801611193565b92505060606112d987828801611269565b91505092959194509250565b600080604083850312156112fc576112fb61116d565b5b600061130a85828601611193565b925050602061131b85828601611269565b9150509250929050565b61132e81611172565b82525050565b60006020820190506113496000830184611325565b92915050565b61135881611240565b82525050565b6000602082019050611373600083018461134f565b92915050565b600082825260208201905092915050565b7f41756374696f6e20656e6420616c72656164792063616c6c6564000000000000600082015250565b60006113c0601a83611379565b91506113cb8261138a565b602082019050919050565b600060208201905081810360008301526113ef816113b3565b9050919050565b7f546865726520616c726561647920697320612068696768657220626964000000600082015250565b600061142c601d83611379565b9150611437826113f6565b602082019050919050565b6000602082019050818103600083015261145b8161141f565b9050919050565b6000606082019050611477600083018661134f565b611484602083018561134f565b6114916040830184611325565b949350505050565b6000815190506114a8816111f4565b92915050565b6000602082840312156114c4576114c361116d565b5b60006114d284828501611499565b91505092915050565b60006040820190506114f0600083018561134f565b6114fd6020830184611325565b9392505050565b7f41756374696f6e20616c72656164792065786973747300000000000000000000600082015250565b600061153a601683611379565b915061154582611504565b602082019050919050565b600060208201905081810360008301526115698161152d565b9050919050565b7f496e76616c696420436f6e747261637420416464726573730000000000000000600082015250565b60006115a6601883611379565b91506115b182611570565b602082019050919050565b600060208201905081810360008301526115d581611599565b9050919050565b6000815190506115eb81611252565b92915050565b6000602082840312156116075761160661116d565b5b6000611615848285016115dc565b91505092915050565b7f4e6f74204f776e65720000000000000000000000000000000000000000000000600082015250565b6000611654600983611379565b915061165f8261161e565b602082019050919050565b6000602082019050818103600083015261168381611647565b9050919050565b611693816111e8565b82525050565b60006040820190506116ae600083018561168a565b6116bb6020830184611325565b9392505050565b600082825260208201905092915050565b50565b60006116e36000836116c2565b91506116ee826116d3565b600082019050919050565b600060a08201905061170e600083018761134f565b61171b602083018661134f565b6117286040830185611325565b6117356060830184611325565b8181036080830152611746816116d6565b905095945050505050565b7f4e487b7100000000000000000000000000000000000000000000000000000000600052601160045260246000fd5b600061178b82611172565b915061179683611172565b92508282026117a481611172565b915082820484148315176117bb576117ba611751565b5b5092915050565b7f4e487b7100000000000000000000000000000000000000000000000000000000600052601260045260246000fd5b60006117fc82611172565b915061180783611172565b925082611817576118166117c2565b5b828204905092915050565b600061182d82611172565b915061183883611172565b92508282039050818111156118505761184f611751565b5b92915050565b600061186182611172565b915061186c83611172565b925082820190508082111561188457611883611751565b5b92915050565b600060808201905061189f6000830187611325565b6118ac6020830186611325565b6118b96040830185611325565b6118c66060830184611325565b95945050505050565b7f4e6f742053656c6c657200000000000000000000000000000000000000000000600082015250565b6000611905600a83611379565b9150611910826118cf565b602082019050919050565b60006020820190508181036000830152611934816118f8565b905091905056fea26469706673582212202fe98ca237a5b1636e32da1840c298b20cc018d4f1fe0a2903175a13d062b7da64736f6c63430008140033",
  "linkReferences": {},
  "deployedLinkReferences": {}
}