{
  "_format": "hh-sol-artifact-1",
  "contractName": "ERC721Token",
  "sourceName": "contracts/ERC721Token.sol",
  "abi": [
    {
      "inputs": [],
      "stateMutability": "nonpayable",
      "type": "constructor"
    },
    {
      "inputs": [
        {
          "internalType": "address",
          "name": "sender",
          "type": "address"
        },
        {
          "internalType": "uint256",
          "name": "tokenId",
          "type": "uint256"
        },
        {
          "internalType": "address",
          "name": "owner",
          "type": "address"
        }
      ],
      "name": "ERC721IncorrectOwner",
      "type": "error"
    },
    {
      "inputs": [
        {
          "internalType": "address",
          "name": "operator",
          "type": "address"
        },
        {
          "internalType": "uint256",
          "name": "tokenId",
          "type": "uint256"
        }
      ],
      "name": "ERC721InsufficientApproval",
      "type": "error"
    },
    {
      "inputs": [
        {
          "internalType": "address",
          "name": "approver",
          "type": "address"
        }
      ],
      "name": "ERC721InvalidApprover",
      "type": "error"
    },
    {
      "inputs": [
        {
          "internalType": "address",
          "name": "operator",
          "type": "address"
        }
      ],
      "name": "ERC721InvalidOperator",
      "type": "error"
    },
    {
      "inputs": [
        {
          "internalType": "address",
          "name": "owner",
          "type": "address"
        }
      ],
      "name": "ERC721InvalidOwner",
      "type": "error"
    },
    {
      "inputs": [
        {
          "internalType": "address",
          "name": "receiver",
          "type": "address"
        }
      ],
      "name": "ERC721InvalidReceiver",
      "type": "error"
    },
    {
      "inputs": [
        {
          "internalType": "address",
          "name": "sender",
          "type": "address"
        }
      ],
      "name": "ERC721InvalidSender",
      "type": "error"
    },
    {
      "inputs": [
        {
          "internalType": "uint256",
          "name": "tokenId",
          "type": "uint256"
        }
      ],
      "name": "ERC721NonexistentToken",
      "type": "error"
    },
    {
      "anonymous": false,
      "inputs": [
        {
          "indexed": true,
          "internalType": "address",
          "name": "owner",
          "type": "address"
        },
        {
          "indexed": true,
          "internalType": "address",
          "name": "approved",
          "type": "address"
        },
        {
          "indexed": true,
          "internalType": "uint256",
          "name": "tokenId",
          "type": "uint256"
        }
      ],
      "name": "Approval",
      "type": "event"
    },
    {
      "anonymous": false,
      "inputs": [
        {
          "indexed": true,
          "internalType": "address",
          "name": "owner",
          "type": "address"
        },
        {
          "indexed": true,
          "internalType": "address",
          "name": "operator",
          "type": "address"
        },
        {
          "indexed": false,
          "internalType": "bool",
          "name": "approved",
          "type": "bool"
        }
      ],
      "name": "ApprovalForAll",
      "type": "event"
    },
    {
      "anonymous": false,
      "inputs": [
        {
          "indexed": false,
          "internalType": "uint256",
          "name": "_fromTokenId",
          "type": "uint256"
        },
        {
          "indexed": false,
          "internalType": "uint256",
          "name": "_toTokenId",
          "type": "uint256"
        }
      ],
      "name": "BatchMetadataUpdate",
      "type": "event"
    },
    {
      "anonymous": false,
      "inputs": [
        {
          "indexed": false,
          "internalType": "uint256",
          "name": "_tokenId",
          "type": "uint256"
        }
      ],
      "name": "MetadataUpdate",
      "type": "event"
    },
    {
      "anonymous": false,
      "inputs": [
        {
          "indexed": true,
          "internalType": "address",
          "name": "from",
          "type": "address"
        },
        {
          "indexed": true,
          "internalType": "address",
          "name": "to",
          "type": "address"
        },
        {
          "indexed": true,
          "internalType": "uint256",
          "name": "tokenId",
          "type": "uint256"
        }
      ],
      "name": "Transfer",
      "type": "event"
    },
    {
      "inputs": [
        {
          "internalType": "address",
          "name": "to",
          "type": "address"
        },
        {
          "internalType": "uint256",
          "name": "tokenId",
          "type": "uint256"
        }
      ],
      "name": "approve",
      "outputs": [],
      "stateMutability": "nonpayable",
      "type": "function"
    },
    {
      "inputs": [
        {
          "internalType": "address",
          "name": "to",
          "type": "address"
        },
        {
          "internalType": "uint256",
          "name": "tokenId",
          "type": "uint256"
        }
      ],
      "name": "approveSpender",
      "outputs": [],
      "stateMutability": "nonpayable",
      "type": "function"
    },
    {
      "inputs": [
        {
          "internalType": "address",
          "name": "owner",
          "type": "address"
        }
      ],
      "name": "balanceOf",
      "outputs": [
        {
          "internalType": "uint256",
          "name": "",
          "type": "uint256"
        }
      ],
      "stateMutability": "view",
      "type": "function"
    },
    {
      "inputs": [
        {
          "internalType": "uint256",
          "name": "tokenId",
          "type": "uint256"
        }
      ],
      "name": "generateCharacter",
      "outputs": [
        {
          "internalType": "string",
          "name": "",
          "type": "string"
        }
      ],
      "stateMutability": "view",
      "type": "function"
    },
    {
      "inputs": [
        {
          "internalType": "uint256",
          "name": "tokenId",
          "type": "uint256"
        }
      ],
      "name": "getApproved",
      "outputs": [
        {
          "internalType": "address",
          "name": "",
          "type": "address"
        }
      ],
      "stateMutability": "view",
      "type": "function"
    },
    {
      "inputs": [
        {
          "internalType": "uint256",
          "name": "tokenId",
          "type": "uint256"
        }
      ],
      "name": "getLevels",
      "outputs": [
        {
          "internalType": "string",
          "name": "",
          "type": "string"
        }
      ],
      "stateMutability": "view",
      "type": "function"
    },
    {
      "inputs": [
        {
          "internalType": "uint256",
          "name": "tokenId",
          "type": "uint256"
        }
      ],
      "name": "getTokenURI",
      "outputs": [
        {
          "internalType": "string",
          "name": "",
          "type": "string"
        }
      ],
      "stateMutability": "view",
      "type": "function"
    },
    {
      "inputs": [
        {
          "internalType": "address",
          "name": "owner",
          "type": "address"
        },
        {
          "internalType": "address",
          "name": "operator",
          "type": "address"
        }
      ],
      "name": "isApprovedForAll",
      "outputs": [
        {
          "internalType": "bool",
          "name": "",
          "type": "bool"
        }
      ],
      "stateMutability": "view",
      "type": "function"
    },
    {
      "inputs": [],
      "name": "mint",
      "outputs": [],
      "stateMutability": "nonpayable",
      "type": "function"
    },
    {
      "inputs": [],
      "name": "name",
      "outputs": [
        {
          "internalType": "string",
          "name": "",
          "type": "string"
        }
      ],
      "stateMutability": "view",
      "type": "function"
    },
    {
      "inputs": [
        {
          "internalType": "uint256",
          "name": "tokenId",
          "type": "uint256"
        }
      ],
      "name": "ownerOf",
      "outputs": [
        {
          "internalType": "address",
          "name": "",
          "type": "address"
        }
      ],
      "stateMutability": "view",
      "type": "function"
    },
    {
      "inputs": [
        {
          "internalType": "address",
          "name": "from",
          "type": "address"
        },
        {
          "internalType": "address",
          "name": "to",
          "type": "address"
        },
        {
          "internalType": "uint256",
          "name": "tokenId",
          "type": "uint256"
        }
      ],
      "name": "safeTransferFrom",
      "outputs": [],
      "stateMutability": "nonpayable",
      "type": "function"
    },
    {
      "inputs": [
        {
          "internalType": "address",
          "name": "from",
          "type": "address"
        },
        {
          "internalType": "address",
          "name": "to",
          "type": "address"
        },
        {
          "internalType": "uint256",
          "name": "tokenId",
          "type": "uint256"
        },
        {
          "internalType": "bytes",
          "name": "data",
          "type": "bytes"
        }
      ],
      "name": "safeTransferFrom",
      "outputs": [],
      "stateMutability": "nonpayable",
      "type": "function"
    },
    {
      "inputs": [
        {
          "internalType": "address",
          "name": "operator",
          "type": "address"
        },
        {
          "internalType": "bool",
          "name": "approved",
          "type": "bool"
        }
      ],
      "name": "setApprovalForAll",
      "outputs": [],
      "stateMutability": "nonpayable",
      "type": "function"
    },
    {
      "inputs": [
        {
          "internalType": "bytes4",
          "name": "interfaceId",
          "type": "bytes4"
        }
      ],
      "name": "supportsInterface",
      "outputs": [
        {
          "internalType": "bool",
          "name": "",
          "type": "bool"
        }
      ],
      "stateMutability": "view",
      "type": "function"
    },
    {
      "inputs": [],
      "name": "symbol",
      "outputs": [
        {
          "internalType": "string",
          "name": "",
          "type": "string"
        }
      ],
      "stateMutability": "view",
      "type": "function"
    },
    {
      "inputs": [
        {
          "internalType": "uint256",
          "name": "",
          "type": "uint256"
        }
      ],
      "name": "tokenIdToLevels",
      "outputs": [
        {
          "internalType": "uint256",
          "name": "",
          "type": "uint256"
        }
      ],
      "stateMutability": "view",
      "type": "function"
    },
    {
      "inputs": [
        {
          "internalType": "uint256",
          "name": "tokenId",
          "type": "uint256"
        }
      ],
      "name": "tokenURI",
      "outputs": [
        {
          "internalType": "string",
          "name": "",
          "type": "string"
        }
      ],
      "stateMutability": "view",
      "type": "function"
    },
    {
      "inputs": [
        {
          "internalType": "address",
          "name": "from",
          "type": "address"
        },
        {
          "internalType": "address",
          "name": "to",
          "type": "address"
        },
        {
          "internalType": "uint256",
          "name": "tokenId",
          "type": "uint256"
        }
      ],
      "name": "transferFrom",
      "outputs": [],
      "stateMutability": "nonpayable",
      "type": "function"
    }
  ],
  "bytecode": "0x60806040523480156200001157600080fd5b506040518060400160405280600881526020017f506f7065204e46540000000000000000000000000000000000000000000000008152506040518060400160405280600481526020017f504e46540000000000000000000000000000000000000000000000000000000081525081600090816200008f919062000324565b508060019081620000a1919062000324565b5050506200040b565b600081519050919050565b7f4e487b7100000000000000000000000000000000000000000000000000000000600052604160045260246000fd5b7f4e487b7100000000000000000000000000000000000000000000000000000000600052602260045260246000fd5b600060028204905060018216806200012c57607f821691505b602082108103620001425762000141620000e4565b5b50919050565b60008190508160005260206000209050919050565b60006020601f8301049050919050565b600082821b905092915050565b600060088302620001ac7fffffffffffffffffffffffffffffffffffffffffffffffffffffffffffffffff826200016d565b620001b886836200016d565b95508019841693508086168417925050509392505050565b6000819050919050565b6000819050919050565b600062000205620001ff620001f984620001d0565b620001da565b620001d0565b9050919050565b6000819050919050565b6200022183620001e4565b6200023962000230826200020c565b8484546200017a565b825550505050565b600090565b6200025062000241565b6200025d81848462000216565b505050565b5b8181101562000285576200027960008262000246565b60018101905062000263565b5050565b601f821115620002d4576200029e8162000148565b620002a9846200015d565b81016020851015620002b9578190505b620002d1620002c8856200015d565b83018262000262565b50505b505050565b600082821c905092915050565b6000620002f960001984600802620002d9565b1980831691505092915050565b6000620003148383620002e6565b9150826002028217905092915050565b6200032f82620000aa565b67ffffffffffffffff8111156200034b576200034a620000b5565b5b62000357825462000113565b6200036482828562000289565b600060209050601f8311600181146200039c576000841562000387578287015190505b62000393858262000306565b86555062000403565b601f198416620003ac8662000148565b60005b82811015620003d657848901518255600182019150602085019450602081019050620003af565b86831015620003f65784890151620003f2601f891682620002e6565b8355505b6001600288020188555050505b505050505050565b612f27806200041b6000396000f3fe608060405234801561001057600080fd5b50600436106101215760003560e01c806342842e0e116100ad578063b88d4fde11610071578063b88d4fde14610318578063c6a4342f14610334578063c87b56dd14610364578063e985e9c514610394578063f43785f9146103c457610121565b806342842e0e146102625780636352211e1461027e57806370a08231146102ae57806395d89b41146102de578063a22cb465146102fc57610121565b8063095ea7b3116100f4578063095ea7b3146101c05780630daefed5146101dc5780631249c58b1461020c57806323b872dd146102165780633bb3a24d1461023257610121565b806301ffc9a71461012657806306fdde0314610156578063080d7c4d14610174578063081812fc14610190575b600080fd5b610140600480360381019061013b9190611ba9565b6103f4565b60405161014d9190611bf1565b60405180910390f35b61015e610455565b60405161016b9190611c9c565b60405180910390f35b61018e60048036038101906101899190611d52565b6104e7565b005b6101aa60048036038101906101a59190611d92565b6104f5565b6040516101b79190611dce565b60405180910390f35b6101da60048036038101906101d59190611d52565b610511565b005b6101f660048036038101906101f19190611d92565b610527565b6040516102039190611c9c565b60405180910390f35b610214610585565b005b610230600480360381019061022b9190611de9565b6105de565b005b61024c60048036038101906102479190611d92565b6106e0565b6040516102599190611c9c565b60405180910390f35b61027c60048036038101906102779190611de9565b610748565b005b61029860048036038101906102939190611d92565b610768565b6040516102a59190611dce565b60405180910390f35b6102c860048036038101906102c39190611e3c565b61077a565b6040516102d59190611e78565b60405180910390f35b6102e6610834565b6040516102f39190611c9c565b60405180910390f35b61031660048036038101906103119190611ebf565b6108c6565b005b610332600480360381019061032d9190612034565b6108dc565b005b61034e60048036038101906103499190611d92565b6108f9565b60405161035b9190611e78565b60405180910390f35b61037e60048036038101906103799190611d92565b610911565b60405161038b9190611c9c565b60405180910390f35b6103ae60048036038101906103a991906120b7565b610a24565b6040516103bb9190611bf1565b60405180910390f35b6103de60048036038101906103d99190611d92565b610ab8565b6040516103eb9190611c9c565b60405180910390f35b6000634906490660e01b7bffffffffffffffffffffffffffffffffffffffffffffffffffffffff1916827bffffffffffffffffffffffffffffffffffffffffffffffffffffffff1916148061044e575061044d82610ae3565b5b9050919050565b60606000805461046490612126565b80601f016020809104026020016040519081016040528092919081815260200182805461049090612126565b80156104dd5780601f106104b2576101008083540402835291602001916104dd565b820191906000526020600020905b8154815290600101906020018083116104c057829003601f168201915b5050505050905090565b6104f18282610511565b5050565b600061050082610bc5565b5061050a82610c4d565b9050919050565b610523828261051e610c8a565b610c92565b5050565b6060600061053483610ab8565b60405160200161054491906125bb565b604051602081830303815290604052905061055e81610ca4565b60405160200161056e919061268c565b604051602081830303815290604052915050919050565b60016007600082825461059891906126dd565b925050819055506105ab33600754610e16565b6000600860006007548152602001908152602001600020819055506105dc6007546105d76007546106e0565b610f0f565b565b600073ffffffffffffffffffffffffffffffffffffffff168273ffffffffffffffffffffffffffffffffffffffff16036106505760006040517f64a0ae920000000000000000000000000000000000000000000000000000000081526004016106479190611dce565b60405180910390fd5b6000610664838361065f610c8a565b610f6b565b90508373ffffffffffffffffffffffffffffffffffffffff168173ffffffffffffffffffffffffffffffffffffffff16146106da578382826040517f64283d7b0000000000000000000000000000000000000000000000000000000081526004016106d193929190612711565b60405180910390fd5b50505050565b606060006106ed83611185565b6106f684610527565b604051602001610707929190612982565b604051602081830303815290604052905061072181610ca4565b6040516020016107319190612a3f565b604051602081830303815290604052915050919050565b610763838383604051806020016040528060008152506108dc565b505050565b600061077382610bc5565b9050919050565b60008073ffffffffffffffffffffffffffffffffffffffff168273ffffffffffffffffffffffffffffffffffffffff16036107ed5760006040517f89c62b640000000000000000000000000000000000000000000000000000000081526004016107e49190611dce565b60405180910390fd5b600360008373ffffffffffffffffffffffffffffffffffffffff1673ffffffffffffffffffffffffffffffffffffffff168152602001908152602001600020549050919050565b60606001805461084390612126565b80601f016020809104026020016040519081016040528092919081815260200182805461086f90612126565b80156108bc5780601f10610891576101008083540402835291602001916108bc565b820191906000526020600020905b81548152906001019060200180831161089f57829003601f168201915b5050505050905090565b6108d86108d1610c8a565b8383611253565b5050565b6108e78484846105de565b6108f3848484846113c2565b50505050565b60086020528060005260406000206000915090505481565b606061091c82610bc5565b50600060066000848152602001908152602001600020805461093d90612126565b80601f016020809104026020016040519081016040528092919081815260200182805461096990612126565b80156109b65780601f1061098b576101008083540402835291602001916109b6565b820191906000526020600020905b81548152906001019060200180831161099957829003601f168201915b5050505050905060006109c7611579565b905060008151036109dc578192505050610a1f565b600082511115610a115780826040516020016109f9929190612a61565b60405160208183030381529060405292505050610a1f565b610a1a84611590565b925050505b919050565b6000600560008473ffffffffffffffffffffffffffffffffffffffff1673ffffffffffffffffffffffffffffffffffffffff16815260200190815260200160002060008373ffffffffffffffffffffffffffffffffffffffff1673ffffffffffffffffffffffffffffffffffffffff16815260200190815260200160002060009054906101000a900460ff16905092915050565b6060600060086000848152602001908152602001600020549050610adb81611185565b915050919050565b60007f80ac58cd000000000000000000000000000000000000000000000000000000007bffffffffffffffffffffffffffffffffffffffffffffffffffffffff1916827bffffffffffffffffffffffffffffffffffffffffffffffffffffffff19161480610bae57507f5b5e139f000000000000000000000000000000000000000000000000000000007bffffffffffffffffffffffffffffffffffffffffffffffffffffffff1916827bffffffffffffffffffffffffffffffffffffffffffffffffffffffff1916145b80610bbe5750610bbd826115f9565b5b9050919050565b600080610bd183611663565b9050600073ffffffffffffffffffffffffffffffffffffffff168173ffffffffffffffffffffffffffffffffffffffff1603610c4457826040517f7e273289000000000000000000000000000000000000000000000000000000008152600401610c3b9190611e78565b60405180910390fd5b80915050919050565b60006004600083815260200190815260200160002060009054906101000a900473ffffffffffffffffffffffffffffffffffffffff169050919050565b600033905090565b610c9f83838360016116a0565b505050565b60606000825103610cc657604051806020016040528060008152509050610e11565b6000604051806060016040528060408152602001612eb26040913990506000600360028551610cf591906126dd565b610cff9190612ab4565b6004610d0b9190612ae5565b67ffffffffffffffff811115610d2457610d23611f09565b5b6040519080825280601f01601f191660200182016040528015610d565781602001600182028036833780820191505090505b50905060018201602082018586518701602081018051600082525b82841015610dcc576003840193508351603f8160121c168701518653600186019550603f81600c1c168701518653600186019550603f8160061c168701518653600186019550603f8116870151865360018601955050610d71565b80825260038a510660018114610de95760028114610dfc57610e04565b603d6001870353603d6002870353610e04565b603d60018703535b5050505050505080925050505b919050565b600073ffffffffffffffffffffffffffffffffffffffff168273ffffffffffffffffffffffffffffffffffffffff1603610e885760006040517f64a0ae92000000000000000000000000000000000000000000000000000000008152600401610e7f9190611dce565b60405180910390fd5b6000610e9683836000610f6b565b9050600073ffffffffffffffffffffffffffffffffffffffff168173ffffffffffffffffffffffffffffffffffffffff1614610f0a5760006040517f73c6ac6e000000000000000000000000000000000000000000000000000000008152600401610f019190611dce565b60405180910390fd5b505050565b80600660008481526020019081526020016000209081610f2f9190612cd3565b507ff8e1a15aba9398e019f0b49df1a4fde98ee17ae345cb5f6b5e2c27f5033e8ce782604051610f5f9190611e78565b60405180910390a15050565b600080610f7784611663565b9050600073ffffffffffffffffffffffffffffffffffffffff168373ffffffffffffffffffffffffffffffffffffffff1614610fb957610fb8818486611865565b5b600073ffffffffffffffffffffffffffffffffffffffff168173ffffffffffffffffffffffffffffffffffffffff161461104a57610ffb6000856000806116a0565b6001600360008373ffffffffffffffffffffffffffffffffffffffff1673ffffffffffffffffffffffffffffffffffffffff168152602001908152602001600020600082825403925050819055505b600073ffffffffffffffffffffffffffffffffffffffff168573ffffffffffffffffffffffffffffffffffffffff16146110cd576001600360008773ffffffffffffffffffffffffffffffffffffffff1673ffffffffffffffffffffffffffffffffffffffff168152602001908152602001600020600082825401925050819055505b846002600086815260200190815260200160002060006101000a81548173ffffffffffffffffffffffffffffffffffffffff021916908373ffffffffffffffffffffffffffffffffffffffff160217905550838573ffffffffffffffffffffffffffffffffffffffff168273ffffffffffffffffffffffffffffffffffffffff167fddf252ad1be2c89b69c2b068fc378daa952ba7f163c4a11628f55a4df523b3ef60405160405180910390a4809150509392505050565b60606000600161119484611929565b01905060008167ffffffffffffffff8111156111b3576111b2611f09565b5b6040519080825280601f01601f1916602001820160405280156111e55781602001600182028036833780820191505090505b509050600082602001820190505b600115611248578080600190039150507f3031323334353637383961626364656600000000000000000000000000000000600a86061a8153600a858161123c5761123b612a85565b5b049450600085036111f3575b819350505050919050565b600073ffffffffffffffffffffffffffffffffffffffff168273ffffffffffffffffffffffffffffffffffffffff16036112c457816040517f5b08ba180000000000000000000000000000000000000000000000000000000081526004016112bb9190611dce565b60405180910390fd5b80600560008573ffffffffffffffffffffffffffffffffffffffff1673ffffffffffffffffffffffffffffffffffffffff16815260200190815260200160002060008473ffffffffffffffffffffffffffffffffffffffff1673ffffffffffffffffffffffffffffffffffffffff16815260200190815260200160002060006101000a81548160ff0219169083151502179055508173ffffffffffffffffffffffffffffffffffffffff168373ffffffffffffffffffffffffffffffffffffffff167f17307eab39ab6107e8899845ad3d59bd9653f200f220920489ca2b5937696c31836040516113b59190611bf1565b60405180910390a3505050565b60008373ffffffffffffffffffffffffffffffffffffffff163b1115611573578273ffffffffffffffffffffffffffffffffffffffff1663150b7a02611406610c8a565b8685856040518563ffffffff1660e01b81526004016114289493929190612dfa565b6020604051808303816000875af192505050801561146457506040513d601f19601f820116820180604052508101906114619190612e5b565b60015b6114e8573d8060008114611494576040519150601f19603f3d011682016040523d82523d6000602084013e611499565b606091505b5060008151036114e057836040517f64a0ae920000000000000000000000000000000000000000000000000000000081526004016114d79190611dce565b60405180910390fd5b805181602001fd5b63150b7a0260e01b7bffffffffffffffffffffffffffffffffffffffffffffffffffffffff1916817bffffffffffffffffffffffffffffffffffffffffffffffffffffffff19161461157157836040517f64a0ae920000000000000000000000000000000000000000000000000000000081526004016115689190611dce565b60405180910390fd5b505b50505050565b606060405180602001604052806000815250905090565b606061159b82610bc5565b5060006115a6611579565b905060008151116115c657604051806020016040528060008152506115f1565b806115d084611185565b6040516020016115e1929190612a61565b6040516020818303038152906040525b915050919050565b60007f01ffc9a7000000000000000000000000000000000000000000000000000000007bffffffffffffffffffffffffffffffffffffffffffffffffffffffff1916827bffffffffffffffffffffffffffffffffffffffffffffffffffffffff1916149050919050565b60006002600083815260200190815260200160002060009054906101000a900473ffffffffffffffffffffffffffffffffffffffff169050919050565b80806116d95750600073ffffffffffffffffffffffffffffffffffffffff168273ffffffffffffffffffffffffffffffffffffffff1614155b1561180d5760006116e984610bc5565b9050600073ffffffffffffffffffffffffffffffffffffffff168373ffffffffffffffffffffffffffffffffffffffff161415801561175457508273ffffffffffffffffffffffffffffffffffffffff168173ffffffffffffffffffffffffffffffffffffffff1614155b801561176757506117658184610a24565b155b156117a957826040517fa9fbf51f0000000000000000000000000000000000000000000000000000000081526004016117a09190611dce565b60405180910390fd5b811561180b57838573ffffffffffffffffffffffffffffffffffffffff168273ffffffffffffffffffffffffffffffffffffffff167f8c5be1e5ebec7d5bd14f71427d1e84f3dd0314c0f7b2291e5b200ac8c7c3b92560405160405180910390a45b505b836004600085815260200190815260200160002060006101000a81548173ffffffffffffffffffffffffffffffffffffffff021916908373ffffffffffffffffffffffffffffffffffffffff16021790555050505050565b611870838383611a7c565b61192457600073ffffffffffffffffffffffffffffffffffffffff168373ffffffffffffffffffffffffffffffffffffffff16036118e557806040517f7e2732890000000000000000000000000000000000000000000000000000000081526004016118dc9190611e78565b60405180910390fd5b81816040517f177e802f00000000000000000000000000000000000000000000000000000000815260040161191b929190612e88565b60405180910390fd5b505050565b600080600090507a184f03e93ff9f4daa797ed6e38ed64bf6a1f0100000000000000008310611987577a184f03e93ff9f4daa797ed6e38ed64bf6a1f010000000000000000838161197d5761197c612a85565b5b0492506040810190505b6d04ee2d6d415b85acef810000000083106119c4576d04ee2d6d415b85acef810000000083816119ba576119b9612a85565b5b0492506020810190505b662386f26fc1000083106119f357662386f26fc1000083816119e9576119e8612a85565b5b0492506010810190505b6305f5e1008310611a1c576305f5e1008381611a1257611a11612a85565b5b0492506008810190505b6127108310611a41576127108381611a3757611a36612a85565b5b0492506004810190505b60648310611a645760648381611a5a57611a59612a85565b5b0492506002810190505b600a8310611a73576001810190505b80915050919050565b60008073ffffffffffffffffffffffffffffffffffffffff168373ffffffffffffffffffffffffffffffffffffffff1614158015611b3457508273ffffffffffffffffffffffffffffffffffffffff168473ffffffffffffffffffffffffffffffffffffffff161480611af55750611af48484610a24565b5b80611b3357508273ffffffffffffffffffffffffffffffffffffffff16611b1b83610c4d565b73ffffffffffffffffffffffffffffffffffffffff16145b5b90509392505050565b6000604051905090565b600080fd5b600080fd5b60007fffffffff0000000000000000000000000000000000000000000000000000000082169050919050565b611b8681611b51565b8114611b9157600080fd5b50565b600081359050611ba381611b7d565b92915050565b600060208284031215611bbf57611bbe611b47565b5b6000611bcd84828501611b94565b91505092915050565b60008115159050919050565b611beb81611bd6565b82525050565b6000602082019050611c066000830184611be2565b92915050565b600081519050919050565b600082825260208201905092915050565b60005b83811015611c46578082015181840152602081019050611c2b565b60008484015250505050565b6000601f19601f8301169050919050565b6000611c6e82611c0c565b611c788185611c17565b9350611c88818560208601611c28565b611c9181611c52565b840191505092915050565b60006020820190508181036000830152611cb68184611c63565b905092915050565b600073ffffffffffffffffffffffffffffffffffffffff82169050919050565b6000611ce982611cbe565b9050919050565b611cf981611cde565b8114611d0457600080fd5b50565b600081359050611d1681611cf0565b92915050565b6000819050919050565b611d2f81611d1c565b8114611d3a57600080fd5b50565b600081359050611d4c81611d26565b92915050565b60008060408385031215611d6957611d68611b47565b5b6000611d7785828601611d07565b9250506020611d8885828601611d3d565b9150509250929050565b600060208284031215611da857611da7611b47565b5b6000611db684828501611d3d565b91505092915050565b611dc881611cde565b82525050565b6000602082019050611de36000830184611dbf565b92915050565b600080600060608486031215611e0257611e01611b47565b5b6000611e1086828701611d07565b9350506020611e2186828701611d07565b9250506040611e3286828701611d3d565b9150509250925092565b600060208284031215611e5257611e51611b47565b5b6000611e6084828501611d07565b91505092915050565b611e7281611d1c565b82525050565b6000602082019050611e8d6000830184611e69565b92915050565b611e9c81611bd6565b8114611ea757600080fd5b50565b600081359050611eb981611e93565b92915050565b60008060408385031215611ed657611ed5611b47565b5b6000611ee485828601611d07565b9250506020611ef585828601611eaa565b9150509250929050565b600080fd5b600080fd5b7f4e487b7100000000000000000000000000000000000000000000000000000000600052604160045260246000fd5b611f4182611c52565b810181811067ffffffffffffffff82111715611f6057611f5f611f09565b5b80604052505050565b6000611f73611b3d565b9050611f7f8282611f38565b919050565b600067ffffffffffffffff821115611f9f57611f9e611f09565b5b611fa882611c52565b9050602081019050919050565b82818337600083830152505050565b6000611fd7611fd284611f84565b611f69565b905082815260208101848484011115611ff357611ff2611f04565b5b611ffe848285611fb5565b509392505050565b600082601f83011261201b5761201a611eff565b5b813561202b848260208601611fc4565b91505092915050565b6000806000806080858703121561204e5761204d611b47565b5b600061205c87828801611d07565b945050602061206d87828801611d07565b935050604061207e87828801611d3d565b925050606085013567ffffffffffffffff81111561209f5761209e611b4c565b5b6120ab87828801612006565b91505092959194509250565b600080604083850312156120ce576120cd611b47565b5b60006120dc85828601611d07565b92505060206120ed85828601611d07565b9150509250929050565b7f4e487b7100000000000000000000000000000000000000000000000000000000600052602260045260246000fd5b6000600282049050600182168061213e57607f821691505b602082108103612151576121506120f7565b5b50919050565b600081905092915050565b7f3c73766720786d6c6e733d22687474703a2f2f7777772e77332e6f72672f323060008201527f30302f73766722207072657365727665417370656374526174696f3d22784d6960208201527f6e594d696e206d656574222076696577426f783d22302030203335302033353060408201527f223e000000000000000000000000000000000000000000000000000000000000606082015250565b600061220a606283612157565b915061221582612162565b606282019050919050565b7f3c7374796c653e2e62617365207b2066696c6c3a2077686974653b20666f6e7460008201527f2d66616d696c793a2073657269663b20666f6e742d73697a653a20313470783b60208201527f207d3c2f7374796c653e00000000000000000000000000000000000000000000604082015250565b60006122a2604a83612157565b91506122ad82612220565b604a82019050919050565b7f3c726563742077696474683d223130302522206865696768743d22313030252260008201527f2066696c6c3d22626c61636b22202f3e00000000000000000000000000000000602082015250565b6000612314603083612157565b915061231f826122b8565b603082019050919050565b7f3c7465787420783d223530252220793d223430252220636c6173733d2262617360008201527f652220646f6d696e616e742d626173656c696e653d226d6964646c652220746560208201527f78742d616e63686f723d226d6964646c65223e00000000000000000000000000604082015250565b60006123ac605383612157565b91506123b78261232a565b605382019050919050565b7f57617272696f7200000000000000000000000000000000000000000000000000600082015250565b60006123f8600783612157565b9150612403826123c2565b600782019050919050565b7f3c2f746578743e00000000000000000000000000000000000000000000000000600082015250565b6000612444600783612157565b915061244f8261240e565b600782019050919050565b7f3c7465787420783d223530252220793d223530252220636c6173733d2262617360008201527f652220646f6d696e616e742d626173656c696e653d226d6964646c652220746560208201527f78742d616e63686f723d226d6964646c65223e00000000000000000000000000604082015250565b60006124dc605383612157565b91506124e78261245a565b605382019050919050565b7f4c6576656c733a20000000000000000000000000000000000000000000000000600082015250565b6000612528600883612157565b9150612533826124f2565b600882019050919050565b600061254982611c0c565b6125538185612157565b9350612563818560208601611c28565b80840191505092915050565b7f3c2f7376673e0000000000000000000000000000000000000000000000000000600082015250565b60006125a5600683612157565b91506125b08261256f565b600682019050919050565b60006125c6826121fd565b91506125d182612295565b91506125dc82612307565b91506125e78261239f565b91506125f2826123eb565b91506125fd82612437565b9150612608826124cf565b91506126138261251b565b915061261f828461253e565b915061262a82612437565b915061263582612598565b915081905092915050565b7f646174613a696d6167652f7376672b786d6c3b6261736536342c000000000000600082015250565b6000612676601a83612157565b915061268182612640565b601a82019050919050565b600061269782612669565b91506126a3828461253e565b915081905092915050565b7f4e487b7100000000000000000000000000000000000000000000000000000000600052601160045260246000fd5b60006126e882611d1c565b91506126f383611d1c565b925082820190508082111561270b5761270a6126ae565b5b92915050565b60006060820190506127266000830186611dbf565b6127336020830185611e69565b6127406040830184611dbf565b949350505050565b7f7b00000000000000000000000000000000000000000000000000000000000000600082015250565b600061277e600183612157565b915061278982612748565b600182019050919050565b7f226e616d65223a2022436861696e20426174746c657320230000000000000000600082015250565b60006127ca601883612157565b91506127d582612794565b601882019050919050565b7f222c000000000000000000000000000000000000000000000000000000000000600082015250565b6000612816600283612157565b9150612821826127e0565b600282019050919050565b7f226465736372697074696f6e223a2022426174746c6573206f6e20636861696e60008201527f222c000000000000000000000000000000000000000000000000000000000000602082015250565b6000612888602283612157565b91506128938261282c565b602282019050919050565b7f22696d616765223a202200000000000000000000000000000000000000000000600082015250565b60006128d4600a83612157565b91506128df8261289e565b600a82019050919050565b7f2200000000000000000000000000000000000000000000000000000000000000600082015250565b6000612920600183612157565b915061292b826128ea565b600182019050919050565b7f7d00000000000000000000000000000000000000000000000000000000000000600082015250565b600061296c600183612157565b915061297782612936565b600182019050919050565b600061298d82612771565b9150612998826127bd565b91506129a4828561253e565b91506129af82612809565b91506129ba8261287b565b91506129c5826128c7565b91506129d1828461253e565b91506129dc82612913565b91506129e78261295f565b91508190509392505050565b7f646174613a6170706c69636174696f6e2f6a736f6e3b6261736536342c000000600082015250565b6000612a29601d83612157565b9150612a34826129f3565b601d82019050919050565b6000612a4a82612a1c565b9150612a56828461253e565b915081905092915050565b6000612a6d828561253e565b9150612a79828461253e565b91508190509392505050565b7f4e487b7100000000000000000000000000000000000000000000000000000000600052601260045260246000fd5b6000612abf82611d1c565b9150612aca83611d1c565b925082612ada57612ad9612a85565b5b828204905092915050565b6000612af082611d1c565b9150612afb83611d1c565b9250828202612b0981611d1c565b91508282048414831517612b2057612b1f6126ae565b5b5092915050565b60008190508160005260206000209050919050565b60006020601f8301049050919050565b600082821b905092915050565b600060088302612b897fffffffffffffffffffffffffffffffffffffffffffffffffffffffffffffffff82612b4c565b612b938683612b4c565b95508019841693508086168417925050509392505050565b6000819050919050565b6000612bd0612bcb612bc684611d1c565b612bab565b611d1c565b9050919050565b6000819050919050565b612bea83612bb5565b612bfe612bf682612bd7565b848454612b59565b825550505050565b600090565b612c13612c06565b612c1e818484612be1565b505050565b5b81811015612c4257612c37600082612c0b565b600181019050612c24565b5050565b601f821115612c8757612c5881612b27565b612c6184612b3c565b81016020851015612c70578190505b612c84612c7c85612b3c565b830182612c23565b50505b505050565b600082821c905092915050565b6000612caa60001984600802612c8c565b1980831691505092915050565b6000612cc38383612c99565b9150826002028217905092915050565b612cdc82611c0c565b67ffffffffffffffff811115612cf557612cf4611f09565b5b612cff8254612126565b612d0a828285612c46565b600060209050601f831160018114612d3d5760008415612d2b578287015190505b612d358582612cb7565b865550612d9d565b601f198416612d4b86612b27565b60005b82811015612d7357848901518255600182019150602085019450602081019050612d4e565b86831015612d905784890151612d8c601f891682612c99565b8355505b6001600288020188555050505b505050505050565b600081519050919050565b600082825260208201905092915050565b6000612dcc82612da5565b612dd68185612db0565b9350612de6818560208601611c28565b612def81611c52565b840191505092915050565b6000608082019050612e0f6000830187611dbf565b612e1c6020830186611dbf565b612e296040830185611e69565b8181036060830152612e3b8184612dc1565b905095945050505050565b600081519050612e5581611b7d565b92915050565b600060208284031215612e7157612e70611b47565b5b6000612e7f84828501612e46565b91505092915050565b6000604082019050612e9d6000830185611dbf565b612eaa6020830184611e69565b939250505056fe4142434445464748494a4b4c4d4e4f505152535455565758595a6162636465666768696a6b6c6d6e6f707172737475767778797a303132333435363738392b2fa2646970667358221220bb0a260aba78e9870cc0db4e01f5213a6dc8ffd54901d1fd2e11bcdd705322c464736f6c63430008140033",
  "linkReferences": {},
  "deployedLinkReferences": {}
}